{
  "contractName": "Certificate",
  "abi": [
    {
      "constant": true,
      "inputs": [],
      "name": "quantity",
      "outputs": [
        {
          "name": "",
          "type": "uint256"
        }
      ],
      "payable": false,
      "stateMutability": "view",
      "type": "function"
    },
    {
      "constant": true,
      "inputs": [
        {
          "name": "",
          "type": "address"
        }
      ],
      "name": "balances",
      "outputs": [
        {
          "name": "",
          "type": "uint256"
        }
      ],
      "payable": false,
      "stateMutability": "view",
      "type": "function"
    },
    {
      "constant": true,
      "inputs": [],
      "name": "owner",
      "outputs": [
        {
          "name": "",
          "type": "address"
        }
      ],
      "payable": false,
      "stateMutability": "view",
      "type": "function"
    },
    {
      "constant": true,
      "inputs": [],
      "name": "certificateDetails",
      "outputs": [
        {
          "name": "description",
          "type": "string"
        },
        {
          "name": "liczba",
          "type": "uint256"
        }
      ],
      "payable": false,
      "stateMutability": "view",
      "type": "function"
    },
    {
      "inputs": [
        {
          "name": "_owner",
          "type": "address"
        },
        {
          "name": "_quantity",
          "type": "uint256"
        },
        {
          "name": "_descr",
          "type": "string"
        },
        {
          "name": "_liczba",
          "type": "uint256"
        }
      ],
      "payable": false,
      "stateMutability": "nonpayable",
      "type": "constructor"
    },
    {
      "anonymous": false,
      "inputs": [
        {
          "indexed": true,
          "name": "_from",
          "type": "address"
        },
        {
          "indexed": true,
          "name": "_to",
          "type": "address"
        },
        {
          "indexed": false,
          "name": "_quantity",
          "type": "uint256"
        }
      ],
      "name": "Transfer",
      "type": "event"
    },
    {
      "constant": true,
      "inputs": [],
      "name": "getCerfificateDetails",
      "outputs": [
        {
          "name": "description",
          "type": "string"
        },
        {
          "name": "liczba",
          "type": "uint256"
        }
      ],
      "payable": false,
      "stateMutability": "view",
      "type": "function"
    },
    {
      "constant": true,
      "inputs": [],
      "name": "totalSupply",
      "outputs": [
        {
          "name": "",
          "type": "uint256"
        }
      ],
      "payable": false,
      "stateMutability": "view",
      "type": "function"
    },
    {
      "constant": true,
      "inputs": [
        {
          "name": "_owner",
          "type": "address"
        }
      ],
      "name": "balanceOf",
      "outputs": [
        {
          "name": "_ownerBalance",
          "type": "uint256"
        }
      ],
      "payable": false,
      "stateMutability": "view",
      "type": "function"
    },
    {
      "constant": false,
      "inputs": [
        {
          "name": "to",
          "type": "address"
        },
        {
          "name": "_quantity",
          "type": "uint256"
        }
      ],
      "name": "transfer",
      "outputs": [
        {
          "name": "success",
          "type": "bool"
        }
      ],
      "payable": false,
      "stateMutability": "nonpayable",
      "type": "function"
    }
  ],
  "bytecode": "0x608060405234801561001057600080fd5b506040516109513803806109518339810180604052810190808051906020019092919080519060200190929190805182019291906020018051906020019092919050505082600181905550836000806101000a81548173ffffffffffffffffffffffffffffffffffffffff021916908373ffffffffffffffffffffffffffffffffffffffff16021790555081600360000190805190602001906100b492919061012f565b5080600360010181905550600154600260008060009054906101000a900473ffffffffffffffffffffffffffffffffffffffff1673ffffffffffffffffffffffffffffffffffffffff1673ffffffffffffffffffffffffffffffffffffffff16815260200190815260200160002081905550505050506101d4565b828054600181600116156101000203166002900490600052602060002090601f016020900481019282601f1061017057805160ff191683800117855561019e565b8280016001018555821561019e579182015b8281111561019d578251825591602001919060010190610182565b5b5090506101ab91906101af565b5090565b6101d191905b808211156101cd5760008160009055506001016101b5565b5090565b90565b61076e806101e36000396000f30060806040526004361061008e576000357c0100000000000000000000000000000000000000000000000000000000900463ffffffff16806317fc45e21461009357806318160ddd146100be57806327e235e3146100e957806370a082311461014057806374f74e85146101975780638da5cb5b1461022e578063a9059cbb14610285578063e68e3c44146102ea575b600080fd5b34801561009f57600080fd5b506100a8610381565b6040518082815260200191505060405180910390f35b3480156100ca57600080fd5b506100d3610387565b6040518082815260200191505060405180910390f35b3480156100f557600080fd5b5061012a600480360381019080803573ffffffffffffffffffffffffffffffffffffffff169060200190929190505050610391565b6040518082815260200191505060405180910390f35b34801561014c57600080fd5b50610181600480360381019080803573ffffffffffffffffffffffffffffffffffffffff1690602001909291905050506103a9565b6040518082815260200191505060405180910390f35b3480156101a357600080fd5b506101ac6103f2565b6040518080602001838152602001828103825284818151815260200191508051906020019080838360005b838110156101f25780820151818401526020810190506101d7565b50505050905090810190601f16801561021f5780820380516001836020036101000a031916815260200191505b50935050505060405180910390f35b34801561023a57600080fd5b506102436104a5565b604051808273ffffffffffffffffffffffffffffffffffffffff1673ffffffffffffffffffffffffffffffffffffffff16815260200191505060405180910390f35b34801561029157600080fd5b506102d0600480360381019080803573ffffffffffffffffffffffffffffffffffffffff169060200190929190803590602001909291905050506104ca565b604051808215151515815260200191505060405180910390f35b3480156102f657600080fd5b506102ff610698565b6040518080602001838152602001828103825284818151815260200191508051906020019080838360005b8381101561034557808201518184015260208101905061032a565b50505050905090810190601f1680156103725780820380516001836020036101000a031916815260200191505b50935050505060405180910390f35b60015481565b6000600154905090565b60026020528060005260406000206000915090505481565b6000600260008373ffffffffffffffffffffffffffffffffffffffff1673ffffffffffffffffffffffffffffffffffffffff168152602001908152602001600020549050919050565b606060006003600001600360010154818054600181600116156101000203166002900480601f0160208091040260200160405190810160405280929190818152602001828054600181600116156101000203166002900480156104965780601f1061046b57610100808354040283529160200191610496565b820191906000526020600020905b81548152906001019060200180831161047957829003601f168201915b50505050509150915091509091565b6000809054906101000a900473ffffffffffffffffffffffffffffffffffffffff1681565b600081600260003373ffffffffffffffffffffffffffffffffffffffff1673ffffffffffffffffffffffffffffffffffffffff168152602001908152602001600020541015801561051b5750600082115b151561058f576040517f08c379a000000000000000000000000000000000000000000000000000000000815260040180806020018281038252600e8152602001807f77726f6e67207175616e7469747900000000000000000000000000000000000081525060200191505060405180910390fd5b81600260008573ffffffffffffffffffffffffffffffffffffffff1673ffffffffffffffffffffffffffffffffffffffff1681526020019081526020016000206000828254019250508190555081600260003373ffffffffffffffffffffffffffffffffffffffff1673ffffffffffffffffffffffffffffffffffffffff168152602001908152602001600020600082825403925050819055508273ffffffffffffffffffffffffffffffffffffffff163373ffffffffffffffffffffffffffffffffffffffff167fddf252ad1be2c89b69c2b068fc378daa952ba7f163c4a11628f55a4df523b3ef846040518082815260200191505060405180910390a36001905092915050565b6003806000018054600181600116156101000203166002900480601f0160208091040260200160405190810160405280929190818152602001828054600181600116156101000203166002900480156107325780601f1061070757610100808354040283529160200191610732565b820191906000526020600020905b81548152906001019060200180831161071557829003601f168201915b50505050509080600101549050825600a165627a7a72305820a66d9fd6c8a2cc23c276633238e50d31a091dad341989fd8560a333c73003c5d0029",
  "source": "pragma solidity ^0.4.24;\r\n\r\n// ----------------------------------------------------------------------------\r\n// ERC Token Standard #20 Interface\r\n// https://github.com/ethereum/EIPs/blob/master/EIPS/eip-20-token-standard.md\r\n// ----------------------------------------------------------------------------\r\ncontract ERC20Interface {\r\n    function totalSupply() public view returns (uint);\r\n    function balanceOf(address tokenOwner) public view returns (uint balance);\r\n    function transfer(address to, uint tokens) public returns (bool success);\r\n\r\n    event Transfer(address indexed from, address indexed to, uint tokens);\r\n    \r\n    //function allowance(address tokenOwner, address spender) public view returns (uint remaining);\r\n    //function approve(address spender, uint tokens) public returns (bool success);\r\n    //function transferFrom(address from, address to, uint tokens) public returns (bool success);\r\n    //event Approval(address indexed tokenOwner, address indexed spender, uint tokens);\r\n}\r\n\r\ncontract Certificate is ERC20Interface{\r\n    address public owner;\r\n    uint public quantity;\r\n    mapping(address => uint) public balances;\r\n    \r\n    struct CertificateDetails {\r\n        string description;\r\n        uint liczba;\r\n    }\r\n    CertificateDetails public certificateDetails;\r\n      \r\n    event Transfer(address indexed _from, address indexed _to, uint _quantity);\r\n\r\n\r\n    constructor(address _owner, uint _quantity, string _descr, uint _liczba) public{\r\n        quantity = _quantity;\r\n        owner = _owner;\r\n        certificateDetails.description = _descr;\r\n        certificateDetails.liczba = _liczba;\r\n        balances[owner] = quantity;\r\n    }\r\n    \r\n    modifier onlyOwner(){\r\n        require(\r\n            msg.sender == owner, \r\n            \"Sender not authorized\");\r\n        _;\r\n    } \r\n\r\n    // function enterCertificateDetails(string _description, uint _liczba) public onlyOwner returns (bool success){\r\n    //     certificateDetails.description = _description;\r\n    //     certificateDetails.liczba = _liczba;\r\n    //     return true;\r\n    // }    \r\n    \r\n    function getCerfificateDetails() public view returns(string description, uint liczba ){\r\n        return (certificateDetails.description, certificateDetails.liczba);\r\n    }\r\n    \r\n    function totalSupply() public view returns (uint){\r\n        return quantity;\r\n    }\r\n    \r\n    function balanceOf(address _owner) public view returns (uint _ownerBalance){\r\n        return balances[_owner];\r\n    }\r\n     \r\n     \r\n    //transfer from the owner balance to another address\r\n    function transfer(address to, uint _quantity) public returns (bool success){\r\n        require(\r\n            balances[msg.sender] >= _quantity && _quantity > 0, \r\n            \"wrong quantity\");\r\n         \r\n        balances[to] += _quantity;\r\n        balances[msg.sender] -= _quantity;\r\n         \r\n        emit Transfer(msg.sender, to, _quantity);\r\n         \r\n        return true;\r\n    }\r\n}",
  "sourcePath": "C:\\nodes\\ecert\\contracts\\Certificate.sol",
  "compiler": {
    "name": "solc",
    "version": "0.4.24+commit.e67f0147.Emscripten.clang"
  },
  "schemaVersion": "2.0.1",
  "updatedAt": "2018-10-18T12:16:07.006Z"
}