{
  "contractName": "CertificateCreator",
  "abi": [
    {
      "constant": true,
      "inputs": [
        {
          "name": "",
          "type": "uint256"
        }
      ],
      "name": "certificates",
      "outputs": [
        {
          "name": "",
          "type": "address"
        }
      ],
      "payable": false,
      "stateMutability": "view",
      "type": "function"
    },
    {
      "constant": false,
      "inputs": [
        {
          "name": "_quantity",
          "type": "uint256"
        }
      ],
      "name": "createCertificate",
      "outputs": [],
      "payable": false,
      "stateMutability": "nonpayable",
      "type": "function"
    },
    {
      "constant": true,
      "inputs": [
        {
          "name": "_index",
          "type": "uint256"
        }
      ],
      "name": "getCertAddress",
      "outputs": [
        {
          "name": "certAddress",
          "type": "address"
        }
      ],
      "payable": false,
      "stateMutability": "view",
      "type": "function"
    },
    {
      "constant": true,
      "inputs": [],
      "name": "howManyCert",
      "outputs": [
        {
          "name": "length",
          "type": "uint256"
        }
      ],
      "payable": false,
      "stateMutability": "view",
      "type": "function"
    }
  ],
  "bytecode": "0x608060405234801561001057600080fd5b50610dcc806100206000396000f300608060405260043610610062576000357c0100000000000000000000000000000000000000000000000000000000900463ffffffff16806302f8e5161461006757806343813ba8146100d4578063663b3e22146100ff578063fab091be1461016c575b600080fd5b34801561007357600080fd5b5061009260048036038101908080359060200190929190505050610199565b604051808273ffffffffffffffffffffffffffffffffffffffff1673ffffffffffffffffffffffffffffffffffffffff16815260200191505060405180910390f35b3480156100e057600080fd5b506100e96101db565b6040518082815260200191505060405180910390f35b34801561010b57600080fd5b5061012a600480360381019080803590602001909291905050506101e7565b604051808273ffffffffffffffffffffffffffffffffffffffff1673ffffffffffffffffffffffffffffffffffffffff16815260200191505060405180910390f35b34801561017857600080fd5b5061019760048036038101908080359060200190929190505050610225565b005b600080828154811015156101a957fe5b9060005260206000200160009054906101000a900473ffffffffffffffffffffffffffffffffffffffff169050919050565b60008080549050905090565b6000818154811015156101f657fe5b906000526020600020016000915054906101000a900473ffffffffffffffffffffffffffffffffffffffff1681565b600033826102316102f7565b808373ffffffffffffffffffffffffffffffffffffffff1673ffffffffffffffffffffffffffffffffffffffff16815260200182815260200192505050604051809103906000f08015801561028a573d6000803e3d6000fd5b50905060008190806001815401808255809150509060018203906000526020600020016000909192909190916101000a81548173ffffffffffffffffffffffffffffffffffffffff021916908373ffffffffffffffffffffffffffffffffffffffff160217905550505050565b604051610a9980610308833901905600608060405234801561001057600080fd5b50604051604080610a99833981018060405281019080805190602001909291908051906020019092919050505080600181905550816000806101000a81548173ffffffffffffffffffffffffffffffffffffffff021916908373ffffffffffffffffffffffffffffffffffffffff160217905550600154600260008060009054906101000a900473ffffffffffffffffffffffffffffffffffffffff1673ffffffffffffffffffffffffffffffffffffffff1673ffffffffffffffffffffffffffffffffffffffff16815260200190815260200160002081905550505061099d806100fc6000396000f300608060405260043610610099576000357c0100000000000000000000000000000000000000000000000000000000900463ffffffff16806317fc45e21461009e57806318160ddd146100c957806327e235e3146100f457806370a082311461014b57806374f74e85146101a25780638da5cb5b14610239578063a52e718814610290578063a9059cbb1461031b578063e68e3c4414610380575b600080fd5b3480156100aa57600080fd5b506100b3610417565b6040518082815260200191505060405180910390f35b3480156100d557600080fd5b506100de61041d565b6040518082815260200191505060405180910390f35b34801561010057600080fd5b50610135600480360381019080803573ffffffffffffffffffffffffffffffffffffffff169060200190929190505050610427565b6040518082815260200191505060405180910390f35b34801561015757600080fd5b5061018c600480360381019080803573ffffffffffffffffffffffffffffffffffffffff16906020019092919050505061043f565b6040518082815260200191505060405180910390f35b3480156101ae57600080fd5b506101b7610488565b6040518080602001838152602001828103825284818151815260200191508051906020019080838360005b838110156101fd5780820151818401526020810190506101e2565b50505050905090810190601f16801561022a5780820380516001836020036101000a031916815260200191505b50935050505060405180910390f35b34801561024557600080fd5b5061024e61053b565b604051808273ffffffffffffffffffffffffffffffffffffffff1673ffffffffffffffffffffffffffffffffffffffff16815260200191505060405180910390f35b34801561029c57600080fd5b50610301600480360381019080803590602001908201803590602001908080601f016020809104026020016040519081016040528093929190818152602001838380828437820191505050505050919291929080359060200190929190505050610560565b604051808215151515815260200191505060405180910390f35b34801561032757600080fd5b50610366600480360381019080803573ffffffffffffffffffffffffffffffffffffffff16906020019092919080359060200190929190505050610654565b604051808215151515815260200191505060405180910390f35b34801561038c57600080fd5b50610395610822565b6040518080602001838152602001828103825284818151815260200191508051906020019080838360005b838110156103db5780820151818401526020810190506103c0565b50505050905090810190601f1680156104085780820380516001836020036101000a031916815260200191505b50935050505060405180910390f35b60015481565b6000600154905090565b60026020528060005260406000206000915090505481565b6000600260008373ffffffffffffffffffffffffffffffffffffffff1673ffffffffffffffffffffffffffffffffffffffff168152602001908152602001600020549050919050565b606060006003600001600360010154818054600181600116156101000203166002900480601f01602080910402602001604051908101604052809291908181526020018280546001816001161561010002031660029004801561052c5780601f106105015761010080835404028352916020019161052c565b820191906000526020600020905b81548152906001019060200180831161050f57829003601f168201915b50505050509150915091509091565b6000809054906101000a900473ffffffffffffffffffffffffffffffffffffffff1681565b60008060009054906101000a900473ffffffffffffffffffffffffffffffffffffffff1673ffffffffffffffffffffffffffffffffffffffff163373ffffffffffffffffffffffffffffffffffffffff16141515610626576040517f08c379a00000000000000000000000000000000000000000000000000000000081526004018080602001828103825260158152602001807f53656e646572206e6f7420617574686f72697a6564000000000000000000000081525060200191505060405180910390fd5b826003600001908051906020019061063f9291906108cc565b50816003600101819055506001905092915050565b600081600260003373ffffffffffffffffffffffffffffffffffffffff1673ffffffffffffffffffffffffffffffffffffffff16815260200190815260200160002054101580156106a55750600082115b1515610719576040517f08c379a000000000000000000000000000000000000000000000000000000000815260040180806020018281038252600e8152602001807f77726f6e67207175616e7469747900000000000000000000000000000000000081525060200191505060405180910390fd5b81600260008573ffffffffffffffffffffffffffffffffffffffff1673ffffffffffffffffffffffffffffffffffffffff1681526020019081526020016000206000828254019250508190555081600260003373ffffffffffffffffffffffffffffffffffffffff1673ffffffffffffffffffffffffffffffffffffffff168152602001908152602001600020600082825403925050819055508273ffffffffffffffffffffffffffffffffffffffff163373ffffffffffffffffffffffffffffffffffffffff167fddf252ad1be2c89b69c2b068fc378daa952ba7f163c4a11628f55a4df523b3ef846040518082815260200191505060405180910390a36001905092915050565b6003806000018054600181600116156101000203166002900480601f0160208091040260200160405190810160405280929190818152602001828054600181600116156101000203166002900480156108bc5780601f10610891576101008083540402835291602001916108bc565b820191906000526020600020905b81548152906001019060200180831161089f57829003601f168201915b5050505050908060010154905082565b828054600181600116156101000203166002900490600052602060002090601f016020900481019282601f1061090d57805160ff191683800117855561093b565b8280016001018555821561093b579182015b8281111561093a57825182559160200191906001019061091f565b5b509050610948919061094c565b5090565b61096e91905b8082111561096a576000816000905550600101610952565b5090565b905600a165627a7a723058201e066979c9ed9190924d1470daebf7c49a051ca6897b4fd5ffcfd2fd93b47da80029a165627a7a72305820e4906f52db29c6b6b810979fa7cf7b9486f7aeea17ca06300a78f619e288fb230029",
  "source": "pragma solidity ^0.4.24;\r\n\r\nimport \"./Certificate.sol\";\r\n\r\ncontract CertificateCreator{\r\n    //dynamic array with addresses of deployed certificates\r\n    address[] public certificates; \r\n\r\n    function createCertificate(uint _quantity) public {\r\n        address newCertificate = new Certificate(msg.sender, _quantity);\r\n        certificates.push(newCertificate);\r\n    }\r\n    function getCertAddress(uint _index) public view returns(address certAddress){\r\n        return certificates[_index];\r\n    }\r\n    function howManyCert() public view returns (uint length){\r\n        return certificates.length;\r\n    }\r\n}",
  "sourcePath": "E:\\BC\\ecert\\contracts\\CertificateCreator.sol",
  "compiler": {
    "name": "solc",
    "version": "0.4.24+commit.e67f0147.Emscripten.clang"
  },
  "schemaVersion": "2.0.1",
  "updatedAt": "2018-10-16T20:22:13.992Z"
}